{
  "_format": "hh-sol-artifact-1",
  "contractName": "Hospital",
  "sourceName": "contracts/Hospital.sol",
  "abi": [
    {
      "inputs": [
        {
          "internalType": "string",
          "name": "_name",
          "type": "string"
        },
        {
          "internalType": "uint256",
          "name": "_age",
          "type": "uint256"
        },
        {
          "internalType": "uint256",
          "name": "_designation",
          "type": "uint256"
        }
      ],
      "name": "add_agent",
      "outputs": [
        {
          "internalType": "string",
          "name": "",
          "type": "string"
        }
      ],
      "stateMutability": "nonpayable",
      "type": "function"
    },
    {
      "inputs": [
        {
          "internalType": "address",
          "name": "_patientAddress",
          "type": "address"
        },
        {
          "internalType": "string",
          "name": "_doctorName",
          "type": "string"
        },
        {
          "internalType": "string",
          "name": "_symptoms",
          "type": "string"
        },
        {
          "internalType": "string",
          "name": "_diagnosis",
          "type": "string"
        },
        {
          "internalType": "string",
          "name": "_treatment",
          "type": "string"
        },
        {
          "internalType": "string",
          "name": "_medication",
          "type": "string"
        },
        {
          "internalType": "string",
          "name": "_detail",
          "type": "string"
        },
        {
          "internalType": "string",
          "name": "_report",
          "type": "string"
        },
        {
          "internalType": "string",
          "name": "_bill",
          "type": "string"
        }
      ],
      "name": "add_record",
      "outputs": [],
      "stateMutability": "nonpayable",
      "type": "function"
    },
    {
      "inputs": [],
      "name": "add_record_byDoctor",
      "outputs": [
        {
          "internalType": "bool",
          "name": "",
          "type": "bool"
        }
      ],
      "stateMutability": "view",
      "type": "function"
    },
    {
      "inputs": [
        {
          "internalType": "uint256",
          "name": "",
          "type": "uint256"
        }
      ],
      "name": "doctorList",
      "outputs": [
        {
          "internalType": "address",
          "name": "",
          "type": "address"
        }
      ],
      "stateMutability": "view",
      "type": "function"
    },
    {
      "inputs": [
        {
          "internalType": "address",
          "name": "addr",
          "type": "address"
        }
      ],
      "name": "get_accessed_doctorlist_for_patient",
      "outputs": [
        {
          "internalType": "address[]",
          "name": "",
          "type": "address[]"
        }
      ],
      "stateMutability": "view",
      "type": "function"
    },
    {
      "inputs": [
        {
          "internalType": "address",
          "name": "addr",
          "type": "address"
        }
      ],
      "name": "get_doctor",
      "outputs": [
        {
          "internalType": "string",
          "name": "",
          "type": "string"
        },
        {
          "internalType": "uint256",
          "name": "",
          "type": "uint256"
        }
      ],
      "stateMutability": "view",
      "type": "function"
    },
    {
      "inputs": [],
      "name": "get_doctor_list",
      "outputs": [
        {
          "internalType": "address[]",
          "name": "",
          "type": "address[]"
        }
      ],
      "stateMutability": "view",
      "type": "function"
    },
    {
      "inputs": [
        {
          "internalType": "address",
          "name": "addr",
          "type": "address"
        }
      ],
      "name": "get_patient",
      "outputs": [
        {
          "internalType": "string",
          "name": "",
          "type": "string"
        },
        {
          "internalType": "uint256",
          "name": "",
          "type": "uint256"
        },
        {
          "components": [
            {
              "internalType": "address",
              "name": "patientAddress",
              "type": "address"
            },
            {
              "internalType": "string",
              "name": "doctorName",
              "type": "string"
            },
            {
              "internalType": "string",
              "name": "symptoms",
              "type": "string"
            },
            {
              "internalType": "string",
              "name": "diagnosis",
              "type": "string"
            },
            {
              "internalType": "string",
              "name": "treatment",
              "type": "string"
            },
            {
              "internalType": "string",
              "name": "Medication",
              "type": "string"
            },
            {
              "internalType": "string",
              "name": "details",
              "type": "string"
            },
            {
              "internalType": "string",
              "name": "report",
              "type": "string"
            },
            {
              "internalType": "string",
              "name": "bill",
              "type": "string"
            }
          ],
          "internalType": "struct Hospital.record[]",
          "name": "",
          "type": "tuple[]"
        }
      ],
      "stateMutability": "view",
      "type": "function"
    },
    {
      "inputs": [
        {
          "internalType": "address",
          "name": "paddr",
          "type": "address"
        },
        {
          "internalType": "address",
          "name": "daddr",
          "type": "address"
        }
      ],
      "name": "get_patient_doctor_name",
      "outputs": [
        {
          "internalType": "string",
          "name": "",
          "type": "string"
        },
        {
          "internalType": "string",
          "name": "",
          "type": "string"
        }
      ],
      "stateMutability": "view",
      "type": "function"
    },
    {
      "inputs": [],
      "name": "get_patient_list",
      "outputs": [
        {
          "internalType": "address[]",
          "name": "",
          "type": "address[]"
        }
      ],
      "stateMutability": "view",
      "type": "function"
    },
    {
      "inputs": [
        {
          "internalType": "uint256",
          "name": "",
          "type": "uint256"
        }
      ],
      "name": "patientList",
      "outputs": [
        {
          "internalType": "address",
          "name": "",
          "type": "address"
        }
      ],
      "stateMutability": "view",
      "type": "function"
    },
    {
      "inputs": [
        {
          "internalType": "address",
          "name": "addr",
          "type": "address"
        }
      ],
      "name": "permit_access",
      "outputs": [],
      "stateMutability": "nonpayable",
      "type": "function"
    },
    {
      "inputs": [
        {
          "internalType": "uint256",
          "name": "",
          "type": "uint256"
        }
      ],
      "name": "recordList",
      "outputs": [
        {
          "internalType": "address",
          "name": "patientAddress",
          "type": "address"
        },
        {
          "internalType": "string",
          "name": "doctorName",
          "type": "string"
        },
        {
          "internalType": "string",
          "name": "symptoms",
          "type": "string"
        },
        {
          "internalType": "string",
          "name": "diagnosis",
          "type": "string"
        },
        {
          "internalType": "string",
          "name": "treatment",
          "type": "string"
        },
        {
          "internalType": "string",
          "name": "Medication",
          "type": "string"
        },
        {
          "internalType": "string",
          "name": "details",
          "type": "string"
        },
        {
          "internalType": "string",
          "name": "report",
          "type": "string"
        },
        {
          "internalType": "string",
          "name": "bill",
          "type": "string"
        }
      ],
      "stateMutability": "view",
      "type": "function"
    },
    {
      "inputs": [
        {
          "internalType": "address",
          "name": "paddr",
          "type": "address"
        },
        {
          "internalType": "address",
          "name": "daddr",
          "type": "address"
        }
      ],
      "name": "remove_patient",
      "outputs": [],
      "stateMutability": "nonpayable",
      "type": "function"
    },
    {
      "inputs": [
        {
          "internalType": "address",
          "name": "daddr",
          "type": "address"
        }
      ],
      "name": "revoke_access",
      "outputs": [],
      "stateMutability": "nonpayable",
      "type": "function"
    }
  ],
  "bytecode": "0x608060405234801561001057600080fd5b50612967806100206000396000f3fe608060405234801561001057600080fd5b50600436106100f45760003560e01c80634042d2d411610097578063babb1d4111610066578063babb1d41146102c7578063bcffb7ca146102f7578063c39e963514610313578063e81ac05414610331576100f4565b80634042d2d414610218578063467267581461024a57806356c98c481461027a5780637e15ac0a146102ab576100f4565b806319da83a8116100d357806319da83a8146101755780631cd9206e146101ad5780631e3fc3b8146101cb57806327b1dcee146101fc576100f4565b80627ee3ce146100f95780630362fe9b14610129578063127ca4b414610145575b600080fd5b610113600480360381019061010e9190611e82565b61034f565b60405161012091906124b8565b60405180910390f35b610143600480360381019061013e9190611eaf565b610425565b005b61015f600480360381019061015a9190612108565b6104bf565b60405161016c91906123d8565b60405180910390f35b61018f600480360381019061018a9190612108565b6104fe565b6040516101a4999897969594939291906123f3565b60405180910390f35b6101b56109bc565b6040516101c291906124da565b60405180910390f35b6101e560048036038101906101e09190611eaf565b610aee565b6040516101f3929190612517565b60405180910390f35b61021660048036038101906102119190611e82565b610c98565b005b610232600480360381019061022d9190611e82565b610ca5565b6040516102419392919061257e565b60405180910390f35b610264600480360381019061025f9190612099565b61134b565b60405161027191906124f5565b60405180910390f35b610294600480360381019061028f9190611e82565b611584565b6040516102a292919061254e565b60405180910390f35b6102c560048036038101906102c09190611eef565b6116a2565b005b6102e160048036038101906102dc9190612108565b6118a6565b6040516102ee91906123d8565b60405180910390f35b610311600480360381019061030c9190611e82565b6118e5565b005b61031b611a2e565b60405161032891906124b8565b60405180910390f35b610339611abc565b60405161034691906124b8565b60405180910390f35b60606000600360008473ffffffffffffffffffffffffffffffffffffffff1673ffffffffffffffffffffffffffffffffffffffff16815260200190815260200160002060020190508080548060200260200160405190810160405280929190818152602001828054801561041857602002820191906000526020600020905b8160009054906101000a900473ffffffffffffffffffffffffffffffffffffffff1673ffffffffffffffffffffffffffffffffffffffff16815260200190600101908083116103ce575b5050505050915050919050565b610470600460008373ffffffffffffffffffffffffffffffffffffffff1673ffffffffffffffffffffffffffffffffffffffff16815260200190815260200160002060020183611b4a565b6104bb600360008473ffffffffffffffffffffffffffffffffffffffff1673ffffffffffffffffffffffffffffffffffffffff16815260200190815260200160002060020182611b4a565b5050565b600181815481106104cf57600080fd5b906000526020600020016000915054906101000a900473ffffffffffffffffffffffffffffffffffffffff1681565b6002818154811061050e57600080fd5b90600052602060002090600902016000915090508060000160009054906101000a900473ffffffffffffffffffffffffffffffffffffffff169080600101805461055790612776565b80601f016020809104026020016040519081016040528092919081815260200182805461058390612776565b80156105d05780601f106105a5576101008083540402835291602001916105d0565b820191906000526020600020905b8154815290600101906020018083116105b357829003601f168201915b5050505050908060020180546105e590612776565b80601f016020809104026020016040519081016040528092919081815260200182805461061190612776565b801561065e5780601f106106335761010080835404028352916020019161065e565b820191906000526020600020905b81548152906001019060200180831161064157829003601f168201915b50505050509080600301805461067390612776565b80601f016020809104026020016040519081016040528092919081815260200182805461069f90612776565b80156106ec5780601f106106c1576101008083540402835291602001916106ec565b820191906000526020600020905b8154815290600101906020018083116106cf57829003601f168201915b50505050509080600401805461070190612776565b80601f016020809104026020016040519081016040528092919081815260200182805461072d90612776565b801561077a5780601f1061074f5761010080835404028352916020019161077a565b820191906000526020600020905b81548152906001019060200180831161075d57829003601f168201915b50505050509080600501805461078f90612776565b80601f01602080910402602001604051908101604052809291908181526020018280546107bb90612776565b80156108085780601f106107dd57610100808354040283529160200191610808565b820191906000526020600020905b8154815290600101906020018083116107eb57829003601f168201915b50505050509080600601805461081d90612776565b80601f016020809104026020016040519081016040528092919081815260200182805461084990612776565b80156108965780601f1061086b57610100808354040283529160200191610896565b820191906000526020600020905b81548152906001019060200180831161087957829003601f168201915b5050505050908060070180546108ab90612776565b80601f01602080910402602001604051908101604052809291908181526020018280546108d790612776565b80156109245780601f106108f957610100808354040283529160200191610924565b820191906000526020600020905b81548152906001019060200180831161090757829003601f168201915b50505050509080600801805461093990612776565b80601f016020809104026020016040519081016040528092919081815260200182805461096590612776565b80156109b25780601f10610987576101008083540402835291602001916109b2565b820191906000526020600020905b81548152906001019060200180831161099557829003601f168201915b5050505050905089565b6000806000905060005b600360003373ffffffffffffffffffffffffffffffffffffffff1673ffffffffffffffffffffffffffffffffffffffff16815260200190815260200160002060020180549050811015610ae657600360003373ffffffffffffffffffffffffffffffffffffffff1673ffffffffffffffffffffffffffffffffffffffff1681526020019081526020016000206002018181548110610a6757610a66612880565b5b9060005260206000200160009054906101000a900473ffffffffffffffffffffffffffffffffffffffff1673ffffffffffffffffffffffffffffffffffffffff163373ffffffffffffffffffffffffffffffffffffffff161415610ace5760019150610ad3565b600080fd5b8080610ade906127d9565b9150506109c6565b508091505090565b606080600360008573ffffffffffffffffffffffffffffffffffffffff1673ffffffffffffffffffffffffffffffffffffffff168152602001908152602001600020600001600460008573ffffffffffffffffffffffffffffffffffffffff1673ffffffffffffffffffffffffffffffffffffffff168152602001908152602001600020600001818054610b8190612776565b80601f0160208091040260200160405190810160405280929190818152602001828054610bad90612776565b8015610bfa5780601f10610bcf57610100808354040283529160200191610bfa565b820191906000526020600020905b815481529060010190602001808311610bdd57829003601f168201915b50505050509150808054610c0d90612776565b80601f0160208091040260200160405190810160405280929190818152602001828054610c3990612776565b8015610c865780601f10610c5b57610100808354040283529160200191610c86565b820191906000526020600020905b815481529060010190602001808311610c6957829003601f168201915b50505050509050915091509250929050565b610ca23382610425565b50565b606060006060600360008573ffffffffffffffffffffffffffffffffffffffff1673ffffffffffffffffffffffffffffffffffffffff168152602001908152602001600020600001600360008673ffffffffffffffffffffffffffffffffffffffff1673ffffffffffffffffffffffffffffffffffffffff16815260200190815260200160002060010154600360008773ffffffffffffffffffffffffffffffffffffffff1673ffffffffffffffffffffffffffffffffffffffff168152602001908152602001600020600301828054610d7e90612776565b80601f0160208091040260200160405190810160405280929190818152602001828054610daa90612776565b8015610df75780601f10610dcc57610100808354040283529160200191610df7565b820191906000526020600020905b815481529060010190602001808311610dda57829003601f168201915b5050505050925080805480602002602001604051908101604052809291908181526020016000905b828210156113385783829060005260206000209060090201604051806101200160405290816000820160009054906101000a900473ffffffffffffffffffffffffffffffffffffffff1673ffffffffffffffffffffffffffffffffffffffff1673ffffffffffffffffffffffffffffffffffffffff168152602001600182018054610ea990612776565b80601f0160208091040260200160405190810160405280929190818152602001828054610ed590612776565b8015610f225780601f10610ef757610100808354040283529160200191610f22565b820191906000526020600020905b815481529060010190602001808311610f0557829003601f168201915b50505050508152602001600282018054610f3b90612776565b80601f0160208091040260200160405190810160405280929190818152602001828054610f6790612776565b8015610fb45780601f10610f8957610100808354040283529160200191610fb4565b820191906000526020600020905b815481529060010190602001808311610f9757829003601f168201915b50505050508152602001600382018054610fcd90612776565b80601f0160208091040260200160405190810160405280929190818152602001828054610ff990612776565b80156110465780601f1061101b57610100808354040283529160200191611046565b820191906000526020600020905b81548152906001019060200180831161102957829003601f168201915b5050505050815260200160048201805461105f90612776565b80601f016020809104026020016040519081016040528092919081815260200182805461108b90612776565b80156110d85780601f106110ad576101008083540402835291602001916110d8565b820191906000526020600020905b8154815290600101906020018083116110bb57829003601f168201915b505050505081526020016005820180546110f190612776565b80601f016020809104026020016040519081016040528092919081815260200182805461111d90612776565b801561116a5780601f1061113f5761010080835404028352916020019161116a565b820191906000526020600020905b81548152906001019060200180831161114d57829003601f168201915b5050505050815260200160068201805461118390612776565b80601f01602080910402602001604051908101604052809291908181526020018280546111af90612776565b80156111fc5780601f106111d1576101008083540402835291602001916111fc565b820191906000526020600020905b8154815290600101906020018083116111df57829003601f168201915b5050505050815260200160078201805461121590612776565b80601f016020809104026020016040519081016040528092919081815260200182805461124190612776565b801561128e5780601f106112635761010080835404028352916020019161128e565b820191906000526020600020905b81548152906001019060200180831161127157829003601f168201915b505050505081526020016008820180546112a790612776565b80601f01602080910402602001604051908101604052809291908181526020018280546112d390612776565b80156113205780601f106112f557610100808354040283529160200191611320565b820191906000526020600020905b81548152906001019060200180831161130357829003601f168201915b50505050508152505081526020019060010190610e1f565b5050505090509250925092509193909250565b6060600033905060008314156114655784600360003373ffffffffffffffffffffffffffffffffffffffff1673ffffffffffffffffffffffffffffffffffffffff16815260200190815260200160002060000190805190602001906113b1929190611d45565b5083600360003373ffffffffffffffffffffffffffffffffffffffff1673ffffffffffffffffffffffffffffffffffffffff168152602001908152602001600020600101819055506000819080600181540180825580915050600190039060005260206000200160009091909190916101000a81548173ffffffffffffffffffffffffffffffffffffffff021916908373ffffffffffffffffffffffffffffffffffffffff1602179055508491505061157d565b60018314156115785784600460008373ffffffffffffffffffffffffffffffffffffffff1673ffffffffffffffffffffffffffffffffffffffff16815260200190815260200160002060000190805190602001906114c4929190611d45565b5083600460008373ffffffffffffffffffffffffffffffffffffffff1673ffffffffffffffffffffffffffffffffffffffff168152602001908152602001600020600101819055506001819080600181540180825580915050600190039060005260206000200160009091909190916101000a81548173ffffffffffffffffffffffffffffffffffffffff021916908373ffffffffffffffffffffffffffffffffffffffff1602179055508491505061157d565b600080fd5b9392505050565b60606000600460008473ffffffffffffffffffffffffffffffffffffffff1673ffffffffffffffffffffffffffffffffffffffff168152602001908152602001600020600001600460008573ffffffffffffffffffffffffffffffffffffffff1673ffffffffffffffffffffffffffffffffffffffff1681526020019081526020016000206001015481805461161990612776565b80601f016020809104026020016040519081016040528092919081815260200182805461164590612776565b80156116925780601f1061166757610100808354040283529160200191611692565b820191906000526020600020905b81548152906001019060200180831161167557829003601f168201915b5050505050915091509150915091565b60006040518061012001604052808b73ffffffffffffffffffffffffffffffffffffffff1681526020018a8152602001898152602001888152602001878152602001868152602001858152602001848152602001838152509050600360008b73ffffffffffffffffffffffffffffffffffffffff1673ffffffffffffffffffffffffffffffffffffffff16815260200190815260200160002060030181908060018154018082558091505060019003906000526020600020906009020160009091909190915060008201518160000160006101000a81548173ffffffffffffffffffffffffffffffffffffffff021916908373ffffffffffffffffffffffffffffffffffffffff16021790555060208201518160010190805190602001906117cb929190611d45565b5060408201518160020190805190602001906117e8929190611d45565b506060820151816003019080519060200190611805929190611d45565b506080820151816004019080519060200190611822929190611d45565b5060a082015181600501908051906020019061183f929190611d45565b5060c082015181600601908051906020019061185c929190611d45565b5060e0820151816007019080519060200190611879929190611d45565b50610100820151816008019080519060200190611897929190611d45565b50505050505050505050505050565b600081815481106118b657600080fd5b906000526020600020016000915054906101000a900473ffffffffffffffffffffffffffffffffffffffff1681565b600460008273ffffffffffffffffffffffffffffffffffffffff1673ffffffffffffffffffffffffffffffffffffffff168152602001908152602001600020600201339080600181540180825580915050600190039060005260206000200160009091909190916101000a81548173ffffffffffffffffffffffffffffffffffffffff021916908373ffffffffffffffffffffffffffffffffffffffff160217905550600360003373ffffffffffffffffffffffffffffffffffffffff1673ffffffffffffffffffffffffffffffffffffffff168152602001908152602001600020600201819080600181540180825580915050600190039060005260206000200160009091909190916101000a81548173ffffffffffffffffffffffffffffffffffffffff021916908373ffffffffffffffffffffffffffffffffffffffff16021790555050565b60606001805480602002602001604051908101604052809291908181526020018280548015611ab257602002820191906000526020600020905b8160009054906101000a900473ffffffffffffffffffffffffffffffffffffffff1673ffffffffffffffffffffffffffffffffffffffff1681526020019060010190808311611a68575b5050505050905090565b60606000805480602002602001604051908101604052809291908181526020018280548015611b4057602002820191906000526020600020905b8160009054906101000a900473ffffffffffffffffffffffffffffffffffffffff1673ffffffffffffffffffffffffffffffffffffffff1681526020019060010190808311611af6575b5050505050905090565b60008060005b8480549050811015611be8578373ffffffffffffffffffffffffffffffffffffffff16858281548110611b8657611b85612880565b5b9060005260206000200160009054906101000a900473ffffffffffffffffffffffffffffffffffffffff1673ffffffffffffffffffffffffffffffffffffffff161415611bd557600192508091505b8080611be0906127d9565b915050611b50565b5081611bf357600080fd5b600184805490501415611c4557838181548110611c1357611c12612880565b5b9060005260206000200160006101000a81549073ffffffffffffffffffffffffffffffffffffffff0219169055611d3f565b8360018580549050611c5791906126b8565b81548110611c6857611c67612880565b5b9060005260206000200160009054906101000a900473ffffffffffffffffffffffffffffffffffffffff16848281548110611ca657611ca5612880565b5b9060005260206000200160006101000a81548173ffffffffffffffffffffffffffffffffffffffff021916908373ffffffffffffffffffffffffffffffffffffffff1602179055508360018580549050611d0091906126b8565b81548110611d1157611d10612880565b5b9060005260206000200160006101000a81549073ffffffffffffffffffffffffffffffffffffffff02191690555b50505050565b828054611d5190612776565b90600052602060002090601f016020900481019282611d735760008555611dba565b82601f10611d8c57805160ff1916838001178555611dba565b82800160010185558215611dba579182015b82811115611db9578251825591602001919060010190611d9e565b5b509050611dc79190611dcb565b5090565b5b80821115611de4576000816000905550600101611dcc565b5090565b6000611dfb611df6846125e8565b6125c3565b905082815260208101848484011115611e1757611e166128e3565b5b611e22848285612734565b509392505050565b600081359050611e3981612903565b92915050565b600082601f830112611e5457611e536128de565b5b8135611e64848260208601611de8565b91505092915050565b600081359050611e7c8161291a565b92915050565b600060208284031215611e9857611e976128ed565b5b6000611ea684828501611e2a565b91505092915050565b60008060408385031215611ec657611ec56128ed565b5b6000611ed485828601611e2a565b9250506020611ee585828601611e2a565b9150509250929050565b60008060008060008060008060006101208a8c031215611f1257611f116128ed565b5b6000611f208c828d01611e2a565b99505060208a013567ffffffffffffffff811115611f4157611f406128e8565b5b611f4d8c828d01611e3f565b98505060408a013567ffffffffffffffff811115611f6e57611f6d6128e8565b5b611f7a8c828d01611e3f565b97505060608a013567ffffffffffffffff811115611f9b57611f9a6128e8565b5b611fa78c828d01611e3f565b96505060808a013567ffffffffffffffff811115611fc857611fc76128e8565b5b611fd48c828d01611e3f565b95505060a08a013567ffffffffffffffff811115611ff557611ff46128e8565b5b6120018c828d01611e3f565b94505060c08a013567ffffffffffffffff811115612022576120216128e8565b5b61202e8c828d01611e3f565b93505060e08a013567ffffffffffffffff81111561204f5761204e6128e8565b5b61205b8c828d01611e3f565b9250506101008a013567ffffffffffffffff81111561207d5761207c6128e8565b5b6120898c828d01611e3f565b9150509295985092959850929598565b6000806000606084860312156120b2576120b16128ed565b5b600084013567ffffffffffffffff8111156120d0576120cf6128e8565b5b6120dc86828701611e3f565b93505060206120ed86828701611e6d565b92505060406120fe86828701611e6d565b9150509250925092565b60006020828403121561211e5761211d6128ed565b5b600061212c84828501611e6d565b91505092915050565b60006121418383612161565b60208301905092915050565b600061215983836122d3565b905092915050565b61216a816126ec565b82525050565b612179816126ec565b82525050565b600061218a82612639565b6121948185612674565b935061219f83612619565b8060005b838110156121d05781516121b78882612135565b97506121c28361265a565b9250506001810190506121a3565b5085935050505092915050565b60006121e882612644565b6121f28185612685565b93508360208202850161220485612629565b8060005b858110156122405784840389528151612221858261214d565b945061222c83612667565b925060208a01995050600181019050612208565b50829750879550505050505092915050565b61225b816126fe565b82525050565b600061226c8261264f565b6122768185612696565b9350612286818560208601612743565b61228f816128f2565b840191505092915050565b60006122a58261264f565b6122af81856126a7565b93506122bf818560208601612743565b6122c8816128f2565b840191505092915050565b6000610120830160008301516122ec6000860182612161565b50602083015184820360208601526123048282612261565b9150506040830151848203604086015261231e8282612261565b915050606083015184820360608601526123388282612261565b915050608083015184820360808601526123528282612261565b91505060a083015184820360a086015261236c8282612261565b91505060c083015184820360c08601526123868282612261565b91505060e083015184820360e08601526123a08282612261565b9150506101008301518482036101008601526123bc8282612261565b9150508091505092915050565b6123d28161272a565b82525050565b60006020820190506123ed6000830184612170565b92915050565b600061012082019050612409600083018c612170565b818103602083015261241b818b61229a565b9050818103604083015261242f818a61229a565b90508181036060830152612443818961229a565b90508181036080830152612457818861229a565b905081810360a083015261246b818761229a565b905081810360c083015261247f818661229a565b905081810360e0830152612493818561229a565b90508181036101008301526124a8818461229a565b90509a9950505050505050505050565b600060208201905081810360008301526124d2818461217f565b905092915050565b60006020820190506124ef6000830184612252565b92915050565b6000602082019050818103600083015261250f818461229a565b905092915050565b60006040820190508181036000830152612531818561229a565b90508181036020830152612545818461229a565b90509392505050565b60006040820190508181036000830152612568818561229a565b905061257760208301846123c9565b9392505050565b60006060820190508181036000830152612598818661229a565b90506125a760208301856123c9565b81810360408301526125b981846121dd565b9050949350505050565b60006125cd6125de565b90506125d982826127a8565b919050565b6000604051905090565b600067ffffffffffffffff821115612603576126026128af565b5b61260c826128f2565b9050602081019050919050565b6000819050602082019050919050565b6000819050602082019050919050565b600081519050919050565b600081519050919050565b600081519050919050565b6000602082019050919050565b6000602082019050919050565b600082825260208201905092915050565b600082825260208201905092915050565b600082825260208201905092915050565b600082825260208201905092915050565b60006126c38261272a565b91506126ce8361272a565b9250828210156126e1576126e0612822565b5b828203905092915050565b60006126f78261270a565b9050919050565b60008115159050919050565b600073ffffffffffffffffffffffffffffffffffffffff82169050919050565b6000819050919050565b82818337600083830152505050565b60005b83811015612761578082015181840152602081019050612746565b83811115612770576000848401525b50505050565b6000600282049050600182168061278e57607f821691505b602082108114156127a2576127a1612851565b5b50919050565b6127b1826128f2565b810181811067ffffffffffffffff821117156127d0576127cf6128af565b5b80604052505050565b60006127e48261272a565b91507fffffffffffffffffffffffffffffffffffffffffffffffffffffffffffffffff82141561281757612816612822565b5b600182019050919050565b7f4e487b7100000000000000000000000000000000000000000000000000000000600052601160045260246000fd5b7f4e487b7100000000000000000000000000000000000000000000000000000000600052602260045260246000fd5b7f4e487b7100000000000000000000000000000000000000000000000000000000600052603260045260246000fd5b7f4e487b7100000000000000000000000000000000000000000000000000000000600052604160045260246000fd5b600080fd5b600080fd5b600080fd5b600080fd5b6000601f19601f8301169050919050565b61290c816126ec565b811461291757600080fd5b50565b6129238161272a565b811461292e57600080fd5b5056fea2646970667358221220abea2702f36ac48703388bb9a877b09cf44c26a45768881180d60c9346b825f164736f6c63430008070033",
  "linkReferences": {},
  "deployedLinkReferences": {}
}